:100000000C9458000C9480000C9480000C94800098
:100010000C9480000C9480000C9480000C94800060
:100020000C9480000C9480000C9480000C94800050
:100030000C9480000C9480000C9480000C94800040
:100040000C9446040C9480000C94B6040C94900418
:100050000C9480000C9480000C9480000C94800020
:100060000C94E8040C948000000000002500280097
:100070002B00040404040404040402020202020229
:10008000030303030303010204081020408001025C
:1000900004081020010204081020000000080002DB
:1000A0000100000304070000000000000000070634
:1000B00011241FBECFEFD8E0DEBFCDBF12E0A0E01D
:1000C000B1E0EEEEF9E102C005900D92AC36B10759
:1000D000D9F723E0ACE6B2E001C01D92AE3EB20714
:1000E000E1F710E0C8E5D0E004C02197FE010E94CE
:1000F000EF0CC735D107C9F70E9440060C94F50CE8
:100100000C94000090E0FC01E656FF4F2491FC01A6
:10011000EA57FF4F3491FC01EE58FF4FE491EE2374
:10012000C9F0222339F0233001F1A8F4213019F16C
:10013000223029F1F0E0EE0FFF1FE859FF4FA591A3
:10014000B4918FB7F894EC91611126C030953E239D
:100150003C938FBF08952730A9F02830C9F0243090
:1001600049F7809180008F7D03C0809180008F7758
:1001700080938000DFCF84B58F7784BDDBCF84B5DB
:100180008F7DFBCF8091B0008F778093B000D2CF6E
:100190008091B0008F7DF9CF3E2BDACF3FB7F89436
:1001A0008091410390914203A0914303B091440395
:1001B00026B5A89B05C02F3F19F00196A11DB11DC2
:1001C0003FBFBA2FA92F982F8827BC01CD01620FFE
:1001D000711D811D911D42E0660F771F881F991FB9
:1001E0004A95D1F7089508950895AF92BF92CF929E
:1001F000DF92EF92FF920F931F93CF93DF936C01E7
:100200007B018B01040F151FEB015E01AE18BF08C7
:10021000C017D10759F06991D601ED91FC91019079
:10022000F081E02DC6010995892B79F7C501DF9191
:10023000CF911F910F91FF90EF90DF90CF90BF90E3
:10024000AF900895FC01538D448D252F30E0842F0D
:1002500090E0821B930B541710F0CF9608950197EE
:100260000895FC01918D828D981761F0A28DAE0FDB
:10027000BF2FB11D5D968C91928D9F5F9F73928F62
:1002800090E008958FEF9FEF0895FC01918D828D8E
:10029000981731F0828DE80FF11D858D90E008955B
:1002A0008FEF9FEF0895FC01918D228D892F90E0B3
:1002B000805C9F4F821B91098F739927089585E475
:1002C00093E00E94530121E0892B09F420E0822F62
:1002D000089580E090E0892B29F00E945F01811150
:1002E0000C9400000895FC01A48DA80FB92FB11D36
:1002F000A35ABF4F2C91848D90E001968F7399275C
:10030000848FA689B7892C93A089B1898C91837039
:1003100080648C93938D848D981306C00288F38932
:10032000E02D80818F7D80830895EF92FF920F935F
:100330001F93CF93DF93EC0181E0888F9B8D8C8D91
:1003400098131AC0E889F989808185FF15C09FB785
:10035000F894EE89FF896083E889F9898081837048
:10036000806480839FBF81E090E0DF91CF911F91F7
:100370000F91FF90EF900895F62E0B8D10E00F5F18
:100380001F4F0F731127E02E8C8D8E110CC00FB6EE
:1003900007FCFACFE889F989808185FFF5CFCE0186
:1003A0000E947301F1CFEB8DEC0FFD2FF11DE35A8D
:1003B000FF4FF0829FB7F8940B8FEA89FB89808109
:1003C0008062CFCFCF93DF93EC01888D8823B9F083
:1003D000AA89BB89E889F9898C9185FD03C0808150
:1003E00086FD0DC00FB607FCF7CF8C9185FFF2CFCD
:1003F000808185FFEDCFCE010E947301E9CFDF91AF
:10040000CF9108952091AC02260F3327331F21325C
:100410003105ECF42091FC02FC0190E080E02430F6
:1004200069F082E00895A091AC022191AC0144579B
:100430005D4FA40FB52FB11D2C930196861798F32D
:100440008091AC02680F6093AC0280E0089581E077
:1004500008951092FC0281E08093FB021092D60274
:1004600061E082E10E94820061E083E10E948200FB
:10047000E9EBF0E080818E7F808380818D7F8083B7
:1004800088E48093B80085E48093BC000895CF93FE
:10049000DF9391E09093D5028823B9F0C091B80022
:1004A000D091BA008091BC008A7B8093BC0060E050
:1004B00082E10E94820060E083E10E9482000E944B
:1004C0002902D093BA00C093B800DF91CF9108956C
:1004D0000895E091D4028091D302E81730F4F0E05F
:1004E000E459FD4F808190E008958FEF9FEF0895CC
:1004F0009091D4028091D3022FEF3FEF981748F4E8
:10050000E92FF0E0E459FD4F208130E09F5F9093A8
:10051000D402C90108958091D3029091D402891B1D
:10052000990B0895CF92DF92EF92FF920F931F9352
:10053000CF93DF937C01CB018A01209125032223F5
:1005400089F0EB016B01C40ED51ECC15DD0569F0F9
:100550006991D701ED91FC910190F081E02DC701E7
:100560000995F3CF642F0E940202C801DF91CF9159
:100570001F910F91FF90EF90DF90CF900895CF9350
:10058000DF931F92CDB7DEB7698320912503222325
:10059000F9F020912203203258F021E030E0FC01F4
:1005A0003383228390E080E00F90DF91CF91089514
:1005B00080912303E82FF0E0EE5FFC4F9981908358
:1005C0008F5F809323038093220381E090E0ECCF40
:1005D00061E0CE0101960E940202F7CF90E080E038
:1005E0000895FC0101900020E9F73197AF01481B05
:1005F000590BBC0185E493E00C94F5008F929F9217
:10060000AF92BF920F931F93CF93DF93CDB7DEB717
:10061000A1970FB6F894DEBF0FBECDBF19A242302E
:1006200008F44AE08E010F5D1F4F842E912CB12CEF
:10063000A12CA50194010E94270AE62FB901CA0145
:10064000EA30F4F4E05DD801EE938D01232B242BE6
:10065000252B79F790E080E0109719F0CD010E94EA
:10066000F102A1960FB6F894DEBF0FBECDBFDF91A9
:10067000CF911F910F91BF90AF909F908F90089551
:10068000E95CE1CFCF93DF930E94F102EC0180E5BA
:1006900091E00E94F1028C0F9D1FDF91CF91089590
:1006A0008F929F92AF92BF92CF92DF92EF92FF9282
:1006B0001F93CF93DF936B017C01AC019B010E94E0
:1006C000D50C8823B9F083E591E00E94F102EC019A
:1006D00080E591E00E94F1028C0F9D1FDF91CF9188
:1006E0001F91FF90EF90DF90CF90BF90AF909F90C1
:1006F0008F90089546015701E894B7F82FEF3FEF28
:100700004FE75FE7C501B4010E94D50C81110DC010
:100710002FEF3FEF4FE75FE7C501B4010E94C50A25
:1007200018161CF487E591E0D0CF2FEF3FEF4FE78D
:100730005FE4C701B6010E941D0C18161CF48BE57E
:1007400091E0C3CF2FEF3FEF4FE75FECC701B6015A
:100750000E94C50A87FDF3CF20E030E0A901C70160
:10076000B6010E94C50AD0E0C0E087FF0AC06DE272
:1007700085E493E00E949501EC01F7FAF094F7F814
:10078000F0942BEA35EC47EA56E3C701B6010E9424
:10079000590A6B017C010E943C0B4B015C010E94D9
:1007A0006B0B9B01AC01C701B6010E94580A6B019B
:1007B0007C014AE0C501B4010E94FE02C80FD91FA6
:1007C0006EE285E493E00E949501C80FD91F16E000
:1007D000115009F47DCF20E030E040E251E4C70140
:1007E000B6010E94220C4B015C010E943C0B6B0184
:1007F000F12CE12C4AE0C701B6010E94FE02C80FAD
:10080000D91FC701B6010E946B0B9B01AC01C5014A
:10081000B4010E94580A6B017C01DACF85ED809308
:10082000BC008091FE029091FF02A0910003B09164
:1008300001030796A11DB11D23E0B695A7959795D5
:1008400087952A95D1F72091BC0024FD03C0109212
:10085000FC0208954091FE025091FF026091000356
:1008600070910103452B462B472B69F30097A10597
:10087000B10541F02AE22A95F1F700C00197A109DC
:10088000B109E1CF8091FD020C9447021F920F92B3
:100890000FB60F9211242F933F938F939F93AF9393
:1008A000BF9380913D0390913E03A0913F03B0918F
:1008B000400330913C0323E0230F2D3758F5019678
:1008C000A11DB11D20933C0380933D0390933E03F3
:1008D000A0933F03B0934003809141039091420362
:1008E000A0914303B09144030196A11DB11D8093D3
:1008F000410390934203A0934303B0934403BF91F9
:10090000AF919F918F913F912F910F900FBE0F90BC
:100910001F90189526E8230F0296A11DB11DD2CF76
:100920001F920F920FB60F9211242F933F934F9364
:100930005F936F937F938F939F93AF93BF93EF9347
:10094000FF9385E493E00E947301FF91EF91BF91C3
:10095000AF919F918F917F916F915F914F913F9157
:100960002F910F900FBE0F901F9018951F920F920E
:100970000FB60F9211242F938F939F93EF93FF93B2
:10098000E0915503F09156038081E0915B03F09173
:100990005C0382FD1BC0908180915E038F5F8F732B
:1009A00020915F03821741F0E0915E03F0E0EB5B82
:1009B000FC4F958F80935E03FF91EF919F918F91F4
:1009C0002F910F900FBE0F901F9018958081F4CF3C
:1009D0001F920F920FB60F9211242F933F934F93B4
:1009E0005F936F937F938F939F93AF93BF93EF9397
:1009F000FF938091B900887F803609F44AC0F0F5F2
:100A0000883209F4A7C018F5803109F49BC0B8F406
:100A1000882309F4F9C0883009F494C0FF91EF915C
:100A2000BF91AF919F918F917F916F915F914F9106
:100A30003F912F910F900FBE0F901F901895883106
:100A400009F488C0803251F78093FA0214C08034D0
:100A500009F49DC040F48033B9F38833F9F68093EC
:100A6000FA0285ECB0C0803509F485C0883509F4F8
:100A700096C0883499F60E940E04D0CF883909F4C4
:100A80008CC038F5883729F050F4883611F080375B
:100A900029F683E08093FC021092CE0257C088387A
:100AA00009F47BC0803919F0803809F0B7CF809104
:100AB000CE02803208F071C0E091CE0281E08E0F4C
:100AC0008093CE028091BB00F0E0E255FD4F808321
:100AD0003DC0803B39F0E0F4803A09F479C0883AAF
:100AE00009F09CCF84E08093FC021092AD0210923A
:100AF000AC02E091D102F091D20209958091AC0252
:100B000081110FC081E08093AC0210928C0209C069
:100B1000803C09F4A6CF883C09F4A3CF883B09F0B8
:100B20007DCFE091AD0281E08E0F8093AD02F0E0C9
:100B3000E457FD4F80818093BB009091AD0280917E
:100B4000AC0229C08091D7028093BB0085EC8093D2
:100B5000BC0064CF9091F9028091F802981758F583
:100B6000E091F90281E08E0F8093F902F0E0E85203
:100B7000FD4F8081E9CFE091F90281E08E0F8093F3
:100B8000F9028091BB00F0E0E852FD4F8083909124
:100B9000F9028091F8029817C8F285E8D8CFE09161
:100BA000F90281E08E0F8093F9028091BB00F0E0A2
:100BB000E852FD4F80838091FB0281115CCF81E080
:100BC0008093D60284EA8093BC001092FC0226CF68
:100BD00085EC8093BC001092FC028091CE028032A2
:100BE00030F4E091CE02F0E0E255FD4F10826091CA
:100BF000CE0270E0E091CF02F091D0028EEA92E056
:100C000009951092CE020ACF1092FA0234CFE5E491
:100C1000F3E01382128288EE93E0A0E0B0E08483D8
:100C20009583A683B78320E331E03183208325ECCD
:100C300030E03587248724EC30E03787268720ECA6
:100C400030E0318B208B21EC30E0338B228B22EC97
:100C500030E0358B248B26EC30E0378B268B118EE1
:100C6000128E138E148EE2EEF3E0138212828483CE
:100C70009583A683B78382E491E09183808308956E
:100C8000CF93DF93CDB7DEB763970FB6F894DEBF8F
:100C90000FBECDBF789484B5826084BD84B5816079
:100CA00084BD85B5826085BD85B5816085BD809137
:100CB0006E00816080936E001092810080918100AF
:100CC00082608093810080918100816080938100A7
:100CD000809180008160809380008091B100846069
:100CE0008093B1008091B00081608093B0008091CA
:100CF0007A00846080937A0080917A008260809389
:100D00007A0080917A00816080937A0080917A00E5
:100D1000806880937A001092C1001092D4021092E1
:100D2000D30210922303109222030E94290283EF20
:100D300090E09093D2028093D10284EF90E0909360
:100D4000D0028093CF021092D50288EA91E6A0E00B
:100D5000B0E08093FE029093FF02A0930003B09353
:100D600001031092FD02E0915503F091560382E0D9
:100D70008083E0915103F09152031082E09153037C
:100D8000F091540380E1808310925D03E091590358
:100D9000F0915A0386E08083E0915703F091580365
:100DA000808180618083E0915703F09158038081B6
:100DB00088608083E0915703F091580380818068B8
:100DC0008083E0915703F091580380818F7D808369
:100DD00084E690E090932703809326038AEE91E0C7
:100DE000909329038093280380E793E090932B034B
:100DF00080932A0386EF94E090932D0380932C0335
:100E00008CE796E090932F0380932E0382E098E086
:100E1000909331038093300388E899E090933303F3
:100E2000809332038EE09BE09093350380933403EC
:100E300084E99CE090933703809336038AE19EE037
:100E4000909339038093380380EA9FE090933B03AB
:100E500080933A0326E233E0398B288B40E0242E3E
:100E600041E0342E3B8A2A8A8901188619861A861F
:100E70001B86412C512C32014C825D826E827F8216
:100E800073016201D8016D917D918D0190E080E048
:100E90000E946B0B4B015C01AC019B01C701B601C9
:100EA0000E94590A6B017C01EA89FB898191919129
:100EB000A191B191FB8BEA8B8C879D87AE87BF8711
:100EC0009C01AD016C817D818E819F810E94590AB8
:100ED0006C837D838E839F832C853D854E855F85C6
:100EE000C501B4010E94220C9B01AC01C301B201F7
:100EF0000E94590A2B013C01A5019401C501B401CE
:100F00000E94220C9B01AC01688579858A859B85AE
:100F10000E94590A688779878A879B87F3E00C3398
:100F20001F0709F0AFCF20E030E040E351E4C301F8
:100F3000B2010E94220C4B015C012C813D814E814B
:100F40005F81C701B6010E94220C9B01AC01C50163
:100F5000B4010E94580A4B015C0120E030E040E3FC
:100F600051E4688579858A859B850E94220C2B0136
:100F70003C01A7019601C701B6010E94220C9B010A
:100F8000AC01C301B2010E94580A9B01AC01C5012A
:100F9000B4010E94CA0A688779878A879B879B0168
:100FA000AC01C701B6010E94220C9B01AC016C810F
:100FB0007D818E819F810E94580A20E030E040E3CD
:100FC00051E40E94CA0A6C877D878E879F8720E044
:100FD00030E040E351E46C817D818E819F810E94ED
:100FE000CA0A6C837D838E839F83812C912C54014C
:100FF00075016401D1014D905D906D907D901D0152
:10100000E889F98961917191F98BE88B90E080E032
:101010000E946B0B288539854A855B850E94220CCE
:101020002C853D854E855F850E94590A9B01AC0148
:10103000C301B2010E94580A9B01AC010E94220C1C
:101040009B01AC01C701B6010E94590A6B017C01EA
:101050002C813D814E815F81C301B2010E94580AFB
:101060009B01AC010E94220C9B01AC01C501B401A3
:101070000E94590A4B015C01FCE22F16F1E03F0689
:1010800009F0B8CFAC019B01C701B6010E94CA0AA2
:101090009B01AC0160E070E080E89FE30E94580A89
:1010A0000E94950C4B015C0120E030E048EC52E4DA
:1010B000688579858A859B850E94220C2C853D85D3
:1010C0004E855F850E94590A20E030EF4FE755E4D6
:1010D0000E94220C20E030E040EA50E40E94CA0A5C
:1010E0000E943C0B6B0120E030E04AE755E4688544
:1010F00079858A859B850E94220C2C853D854E85AD
:101100005F850E94590A20E030EF4FE755E40E94C6
:10111000220C20E030E040EA50E40E94CA0A0E941B
:101120003C0B6C837D838E839F83F12CE12C24E622
:1011300030E040E050E02C193D094E095F09ACE376
:10114000BFE00E941C0AAC81BD819D0150E040E0DF
:101150002C193D094E095F090E94FD092C593F4F8A
:101160004F4F5F4F80E48983C90134E0969587959E
:101170003A95E1F78A832295207F2B8381E0809343
:10118000250381E68093240343E050E0BE016F5FB6
:101190007F4F82EE93E00E9492021091220311325F
:1011A00008F094C0009124030E94CE002B013C0162
:1011B0008091FC02811165C082E08093FC0281E095
:1011C0008093FB028FEF8093FA021092F902109342
:1011D000F802A2E0B3E0E8EDF2E080E01813E5C029
:1011E0001092D7028091D702000F082B0093D702EC
:1011F0008091D602813009F0DCC01092D6020E94A4
:10120000CE002B013C018091D7028093BB008091DE
:10121000FE029091FF02A0910003B0910103892B7F
:101220008A2B8B2B99F00E94CE000091FE02109128
:10123000FF022091000330910103641975098609AA
:1012400097090617170728073907E0F18091BC00B6
:1012500083FDD9CF85EC8093BC000E94CE002B018A
:101260003C018091FC02823009F4A5C08091FA0211
:101270008F3F61F18091FA02803241F18091FA0250
:1012800025C08091FE029091FF02A0910003B091D1
:101290000103892B8A2B8B2B09F48ACF0E94CE0065
:1012A0002091FE023091FF02409100035091010312
:1012B00064197509860997092617370748075907DA
:1012C00008F076CF8091FD020E944702109223031E
:1012D000109222031092250382E591E00E944203BE
:1012E0008FE591E00E94420388E891E00E94F102BC
:1012F000688579858A859B850E9450038AE991E0FB
:101300000E94F1026C857D858E859F850E94500329
:101310008CEA91E00E94F102C501B4010E945003E1
:101320008EEB91E00E94420382E591E00E9442032D
:1013300087EE91E00E94F1024AE0C701B6010E94E7
:10134000FE0280E591E00E94F10285EF91E00E94AB
:10135000F102EC81FD81BF0190E080E04AE00E9453
:10136000FE0280E591E00E94F10282E591E00E9498
:10137000420383E092E00E94420383E392E00E94F2
:10138000420382E591E00E9442038EEB91E00E94CD
:10139000420300E010E001151105E9F30E945F012E
:1013A0008823C9F30E940000F6CF9D9191938F5F2F
:1013B00015CF85EE50CF8091FE029091FF02A09153
:1013C0000003B0910103892B8A2B8B2B09F449CFA1
:1013D0000E94CE000091FE021091FF0220910003B6
:1013E00030910103641975098609970906171707D3
:1013F0002807390708F035CF65CF052E97FB1EF477
:1014000000940E94140A57FD07D00E94270A07FC87
:1014100003D04EF40C94140A5095409530952195C4
:101420003F4F4F4F5F4F0895909580957095619510
:101430007F4F8F4F9F4F08950E94490AA59F900D9F
:10144000B49F900DA49F800D911D11240895A1E2D9
:101450001A2EAA1BBB1BFD010DC0AA1FBB1FEE1F2E
:10146000FF1FA217B307E407F50720F0A21BB30B79
:10147000E40BF50B661F771F881F991F1A9469F7F5
:1014800060957095809590959B01AC01BD01CF0151
:101490000895A29FB001B39FC001A39F700D811D4D
:1014A0001124911DB29F700D811D1124911D08956D
:1014B0005058BB27AA270E94700A0C94E30B0E9485
:1014C000D50B38F00E94DC0B20F039F49F3F19F463
:1014D00026F40C94D20B0EF4E095E7FB0C94CC0BA5
:1014E000E92F0E94F40B58F3BA17620773078407B9
:1014F000950720F079F4A6F50C94160C0EF4E095FF
:101500000B2EBA2FA02D0B01B90190010C01CA01BD
:10151000A0011124FF27591B99F0593F50F4503E68
:1015200068F11A16F040A22F232F342F4427585F5A
:10153000F3CF469537952795A795F0405395C9F772
:101540007EF41F16BA0B620B730B840BBAF091502A
:10155000A1F0FF0FBB1F661F771F881FC2F70EC0C9
:10156000BA0F621F731F841F48F48795779567959C
:10157000B795F7959E3F08F0B0CF9395880F08F088
:101580009927EE0F9795879508950E94A80B08F468
:1015900081E008950E94DE0A0C94E30B0E94DC0BAC
:1015A00058F00E94D50B40F029F45F3F29F00C94CD
:1015B000CC0B51110C94170C0C94D20B0E94F40B11
:1015C00068F39923B1F3552391F3951B550BBB2772
:1015D000AA2762177307840738F09F5F5F4F220FB7
:1015E000331F441FAA1FA9F335D00E2E3AF0E0E8AE
:1015F00032D091505040E695001CCAF72BD0FE2FF8
:1016000029D0660F771F881FBB1F2617370748078B
:10161000AB07B0E809F0BB0B802DBF01FF27935843
:101620005F4F3AF09E3F510578F00C94CC0B0C9430
:10163000170C5F3FE4F3983ED4F386957795679552
:10164000B795F7959F5FC9F7880F911D9695879578
:1016500097F90895E1E0660F771F881FBB1F621797
:1016600073078407BA0720F0621B730B840BBA0B55
:10167000EE1F88F7E09508950E94FC0B88F09F57B5
:1016800098F0B92F9927B751B0F0E1F0660F771FA6
:10169000881F991F1AF0BA95C9F714C0B13091F09C
:1016A0000E94160CB1E008950C94160C672F782F49
:1016B0008827B85F39F0B93FCCF386957795679561
:1016C000B395D9F73EF490958095709561957F4FCD
:1016D0008F4F9F4F0895E89409C097FB3EF4909573
:1016E0008095709561957F4F8F4F9F4F9923A9F0FB
:1016F000F92F96E9BB279395F6958795779567958A
:10170000B795F111F8CFFAF4BB0F11F460FF1BC0CD
:101710006F5F7F4F8F4F9F4F16C0882311F096E960
:1017200011C0772321F09EE8872F762F05C066230E
:1017300071F096E8862F70E060E02AF09A95660FC7
:10174000771F881FDAF7880F9695879597F9089580
:10175000990F0008550FAA0BE0E8FEEF16161706C2
:10176000E807F907C0F012161306E407F50798F02A
:10177000621B730B840B950B39F40A2661F0232B43
:10178000242B252B21F408950A2609F4A140A695BF
:101790008FEF811D811D089597F99F6780E870E0A4
:1017A00060E008959FEF80EC089500240A941616D7
:1017B000170618060906089500240A94121613063F
:1017C000140605060895092E0394000C11F48823CD
:1017D00052F0BB0F40F4BF2B11F460FF04C06F5FE9
:1017E0007F4F8F4F9F4F089557FD9058440F551FBF
:1017F00059F05F3F71F04795880F97FB991F61F093
:101800009F3F79F087950895121613061406551F09
:10181000F2CF4695F1DF08C0161617061806991F75
:10182000F1CF86957105610508940895E894BB276A
:1018300066277727CB0197F908950E94A80B08F433
:101840008FEF08950E94350C0C94E30B0E94D50B8A
:1018500038F00E94DC0B20F0952311F00C94CC0B97
:101860000C94D20B11240C94170C0E94F40B70F3FF
:10187000959FC1F3950F50E0551F629FF001729F35
:10188000BB27F00DB11D639FAA27F00DB11DAA1F44
:10189000649F6627B00DA11D661F829F2227B00D91
:1018A000A11D621F739FB00DA11D621F839FA00D1C
:1018B000611D221F749F3327A00D611D231F849F6C
:1018C000600D211D822F762F6A2F11249F575040C3
:1018D0009AF0F1F088234AF0EE0FFF1FBB1F661F3E
:1018E000771F881F91505040A9F79E3F510580F007
:1018F0000C94CC0B0C94170C5F3FE4F3983ED4F39C
:10190000869577956795B795F795E7959F5FC1F7AA
:10191000FE2B880F911D9695879597F9089519F4D8
:1019200016F40C94D20B0C94DA0C0E94FC0BB8F356
:101930009923C9F3B6F39F57550B87FF0E94E80C14
:101940000024A0E640EA900180585695979528F427
:10195000805C660F771F881F20F02617370748071F
:1019600030F4621B730B840B202931294A2BA69576
:1019700017940794202531254A2758F7660F771FBB
:10198000881F20F026173707480730F4620B730BC7
:10199000840B200D311D411DA09581F7B901842FC5
:1019A0009158880F9695879508950E94A80B880BEB
:1019B000990B08959F3F31F0915020F487957795CA
:1019C0006795B795880F911D9695879597F9089516
:1019D00091505040660F771F881FD2F70895EE0F81
:0E19E000FF1F0590F491E02D0994F894FFCFBD
:1019EE00B81E053E9A99193F713D8A3F14AEC73F06
:1019FE005C8F0240AE472140000040407B145E40A9
:101A0E00CDCC7C408FC28D40E17A9C40000000001E
:101A1E009501F5002201E20153013101450100005B
:101A2E000000BF029202EE0268028B027802690287
:101A3E000D0A006E616E00696E66006F7666002A92
:101A4E002A2A2A2A2A2A2A204C696E656172205275
:101A5E00656772657373696F6E20496E666F202AB3
:101A6E002A2A2A2A2A2A2A00536C6F70653A2020C5
:101A7E0020202020206D203D2000496E7465726369
:101A8E006570743A20202062203D2000436F7272F0
:101A9E00656C6174696F6E3A2072203D20002A2AAF
:101AAE002A2A2A2A2A2A2A2A2A2A2A2A2A2A2A2A88
:101ABE002A2A2A2A2A2A2A2A2A2A2A2A2A2A2A2A78
:101ACE002A2A2A2A2A2A004441435F4D494E5F435F
:101ADE004F444520004441435F4D41585F434F44BE
:101AEE00452000436F707920746865204D494E2063
:101AFE00616E64204D415820636F64657320696E7A
:101B0E00746F20746865206D61696E2073637269ED
:101B1E00707400746F206265207573656420617344
:101B2E00207468652063616C6962726174696F6E9E
:101B3E0020666F72207468697320706172746963B5
:0C1B4E00756C6172206D6F64756C650031
:00000001FF
