:100000000C9462000C948A000C948A000C948A0070
:100010000C948A000C948A000C948A000C948A0038
:100020000C948A000C948A000C948A000C948A0028
:100030000C948A000C948A000C948A000C948A0018
:100040000C9464030C948A000C94D4030C94AE03B7
:100050000C948A000C948A000C948A000C948A00F8
:100060000C9406040C948A00000000002300260073
:10007000290000000000240027002A0000000000E2
:10008000250028002B0004040404040404040202D4
:100090000202020203030303030301020408102007
:1000A0004080010204081020010204081020000012
:1000B0000008000201000003040700000000000027
:1000C00000006A0511241FBECFEFD8E0DEBFCDBF10
:1000D00011E0A0E0B1E0EAE7F1E102C005900D9285
:1000E000A832B107D9F722E0A8E2B1E001C01D9221
:1000F000A53DB207E1F710E0C2E6D0E004C02197C9
:10010000FE010E94B508C136D107C9F70E94A305B8
:100110000C94BB080C94000090E0FC01E255FF4FEA
:100120002491FC01E656FF4F3491FC01EA57FF4F42
:10013000E491EE23C9F0222339F0233001F1A8F431
:10014000213019F1223029F1F0E0EE0FFF1FE458C1
:10015000FF4FA591B4918FB7F894EC91611126C02F
:1001600030953E233C938FBF08952730A9F0283067
:10017000C9F0243049F7809180008F7D03C08091C1
:1001800080008F7780938000DFCF84B58F7784BD28
:10019000DBCF84B58F7DFBCF8091B0008F778093CC
:1001A000B000D2CF8091B0008F7DF9CF3E2BDACF57
:1001B000CF93DF9390E0FC01E656FF4F24918A57DE
:1001C0009F4FFC0184918823D1F090E0880F991F04
:1001D000FC01EE58FF4FA591B491FC01E458FF4F8C
:1001E000C591D49161110EC09FB7F8948C91E22F04
:1001F000E0958E238C932881E223E8839FBFDF91D3
:10020000CF9108958FB7F894EC91E22BEC938FBFC8
:10021000F6CF3FB7F8948091280290912902A091DF
:100220002A02B0912B0226B5A89B05C02F3F19F0DA
:100230000196A11DB11D3FBFBA2FA92F982F882766
:10024000BC01CD01620F711D811D911D42E0660F41
:10025000771F881F991F4A95D1F70895089508952B
:10026000AF92BF92CF92DF92EF92FF920F931F93C4
:10027000CF93DF936C017B018B01040F151FEB0102
:100280005E01AE18BF08C017D10759F06991D601B9
:10029000ED91FC910190F081E02DC6010995892B2B
:1002A00079F7C501DF91CF911F910F91FF90EF90EA
:1002B000DF90CF90BF90AF900895FC01538D448D97
:1002C000252F30E0842F90E0821B930B541710F001
:1002D000CF96089501970895FC01918D828D98170E
:1002E00061F0A28DAE0FBF2FB11D5D968C91928DE6
:1002F0009F5F9F73928F90E008958FEF9FEF089517
:10030000FC01918D828D981731F0828DE80FF11DDF
:10031000858D90E008958FEF9FEF0895FC01918DFA
:10032000228D892F90E0805C9F4F821B91098F73F3
:10033000992708958CE292E00E948E0121E0892B9A
:1003400009F420E0822F089580E090E0892B29F0C5
:100350000E949A0181110C9400000895FC01A48D63
:10036000A80FB92FB11DA35ABF4F2C91848D90E0D7
:1003700001968F739927848FA689B7892C93A089BA
:10038000B1898C91837080648C93938D848D981344
:1003900006C00288F389E02D80818F7D80830895D7
:1003A000EF92FF920F931F93CF93DF93EC0181E0C5
:1003B000888F9B8D8C8D98131AC0E889F98980816C
:1003C00085FF15C09FB7F894EE89FF896083E8899F
:1003D000F98980818370806480839FBF81E090E091
:1003E000DF91CF911F910F91FF90EF900895F62E1E
:1003F0000B8D10E00F5F1F4F0F731127E02E8C8DB8
:100400008E110CC00FB607FCFACFE889F9898081FC
:1004100085FFF5CFCE010E94AE01F1CFEB8DEC0F41
:10042000FD2FF11DE35AFF4FF0829FB7F8940B8F19
:10043000EA89FB8980818062CFCFCF93DF93EC0183
:10044000888D8823B9F0AA89BB89E889F9898C91BC
:1004500085FD03C0808186FD0DC00FB607FCF7CF78
:100460008C9185FFF2CF808185FFEDCFCE010E9478
:10047000AE01E9CFDF91CF91089520916801260F59
:100480003327331F21323105ECF42091B801FC01F0
:1004900090E080E0243069F082E00895A091680146
:1004A0002191AC01485B5E4FA40FB52FB11D2C9379
:1004B0000196861798F380916801680F6093680130
:1004C00080E0089581E008951092B80181E0809362
:1004D000B7011092920161E082E10E948C0061E01C
:1004E00083E10E948C00E9EBF0E080818E7F8083C5
:1004F00080818D7F808388E48093B80085E4809339
:10050000BC000895CF93DF9391E0909391018823ED
:10051000B9F0C091B800D091BA008091BC008A7B3C
:100520008093BC0060E082E10E948C0060E083E187
:100530000E948C000E946402D093BA00C093B8005D
:10054000DF91CF9108950895E091900180918F01FE
:10055000E81730F4F0E0E85DFE4F808190E0089508
:100560008FEF9FEF08959091900180918F012FEF71
:100570003FEF981748F4E92FF0E0E85DFE4F208147
:1005800030E09F5F90939001C901089580918F01A1
:1005900090919001891B990B0895CF92DF92EF9271
:1005A000FF920F931F93CF93DF937C01CB018A01BE
:1005B0002091E101222389F0EB016B01C40ED51ECD
:1005C000CC15DD0569F06991D701ED91FC910190A1
:1005D000F081E02DC7010995F3CF642F0E943D0201
:1005E000C801DF91CF911F910F91FF90EF90DF90A5
:1005F000CF900895CF93DF931F92CDB7DEB7698375
:100600002091E1012223F9F02091DE01203258F0FF
:1006100021E030E0FC013383228390E080E00F9002
:10062000DF91CF9108958091DF01E82FF0E0E2544F
:10063000FE4F998190838F5F8093DF018093DE016D
:1006400081E090E0ECCF61E0CE0101960E943D0296
:10065000F7CF90E080E0089585ED8093BC00809115
:10066000BA019091BB01A091BC01B091BD01079668
:10067000A11DB11D23E0B695A795979587952A955D
:10068000D1F72091BC0024FD03C01092B801089559
:100690004091BA015091BB016091BC017091BD01C4
:1006A000452B462B472B69F30097A105B10541F077
:1006B0002AE22A95F1F700C00197A109B109E1CF1B
:1006C0008091B9010C9482021F920F920FB60F9283
:1006D00011242F933F938F939F93AF93BF93809158
:1006E000240290912502A0912602B0912702309118
:1006F000230223E0230F2D3758F50196A11DB11DCC
:10070000209323028093240290932502A093260233
:10071000B09327028091280290912902A0912A0289
:10072000B0912B020196A11DB11D809328029093D8
:100730002902A0932A02B0932B02BF91AF919F91FF
:100740008F913F912F910F900FBE0F901F90189592
:1007500026E8230F0296A11DB11DD2CF1F920F9242
:100760000FB60F9211242F933F934F935F936F9384
:100770007F938F939F93AF93BF93EF93FF938CE2FD
:1007800092E00E94AE01FF91EF91BF91AF919F91D6
:100790008F917F916F915F914F913F912F910F902A
:1007A0000FBE0F901F9018951F920F920FB60F92C9
:1007B00011242F938F939F93EF93FF93E0913C022B
:1007C000F0913D028081E0914202F091430282FD6E
:1007D0001BC09081809145028F5F8F7320914602EC
:1007E000821741F0E0914502F0E0E45DFD4F958F06
:1007F00080934502FF91EF919F918F912F910F90E0
:100800000FBE0F901F9018958081F4CF1F920F920A
:100810000FB60F9211242F933F934F935F936F93D3
:100820007F938F939F93AF93BF93EF93FF938091A9
:10083000B900887F803609F44AC0F0F5883209F49F
:10084000A7C018F5803109F49BC0B8F4882309F4D7
:10085000F9C0883009F494C0FF91EF91BF91AF9136
:100860009F918F917F916F915F914F913F912F91C8
:100870000F900FBE0F901F901895883109F488C013
:10088000803251F78093B60114C0803409F49DC0C2
:1008900040F48033B9F38833F9F68093B60185ECE0
:1008A000B0C0803509F485C0883509F496C0883415
:1008B00099F60E942C03D0CF883909F48CC038F502
:1008C000883729F050F4883611F0803729F683E014
:1008D0008093B80110928A0157C0883809F47BC010
:1008E000803919F0803809F0B7CF80918A018032C1
:1008F00008F071C0E0918A0181E08E0F80938A0137
:100900008091BB00F0E0E659FE4F80833DC0803B04
:1009100039F0E0F4803A09F479C0883A09F09CCFC4
:1009200084E08093B8011092690110926801E0910F
:100930008D01F0918E0109958091680181110FC0A0
:1009400081E0809368011092480109C0803C09F45D
:10095000A6CF883C09F4A3CF883B09F07DCFE09176
:10096000690181E08E0F80936901F0E0E85BFE4F42
:1009700080818093BB00909169018091680129C0BA
:10098000809193018093BB0085EC8093BC0064CF81
:100990009091B5018091B401981758F5E091B50197
:1009A00081E08E0F8093B501F0E0EC56FE4F808120
:1009B000E9CFE091B50181E08E0F8093B501809180
:1009C000BB00F0E0EC56FE4F80839091B501809122
:1009D000B4019817C8F285E8D8CFE091B50181E05D
:1009E0008E0F8093B5018091BB00F0E0EC56FE4F76
:1009F00080838091B70181115CCF81E08093920167
:100A000084EA8093BC001092B80126CF85EC8093D5
:100A1000BC001092B80180918A01803230F4E091DC
:100A20008A01F0E0E659FE4F108260918A0170E081
:100A3000E0918B01F0918C018AE691E0099510928A
:100A40008A010ACF1092B60134CFCF92DF92EF9293
:100A5000FF920F931F93E82FF92F05C00150110942
:100A60002109310961F1908196239417B9F305C0EA
:100A7000015011092109310911F190819623941334
:100A8000F7CFC12CD12CE12CF12C0AC08FEFC81A62
:100A9000D80AE80AF80A0C151D052E053F0579F05D
:100AA00080818623841791F36C2D7D2D8E2D9F2DB3
:100AB0001F910F91FF90EF90DF90CF90089560E02D
:100AC00070E080E090E01F910F91FF90EF90DF9039
:100AD000CF900895ECE2F2E01382128288EE93E068
:100AE000A0E0B0E084839583A683B78324E031E05F
:100AF0003183208325EC30E03587248724EC30E0F7
:100B00003787268720EC30E0318B208B21EC30E0DA
:100B1000338B228B22EC30E0358B248B26EC30E0BB
:100B2000378B268B118E128E138E148EE9ECF2E029
:100B30001382128284839583A683B78386E191E032
:100B4000918380830895CF93DF93CDB7DEB7A197CC
:100B50000FB6F894DEBF0FBECDBF789484B5826027
:100B600084BD84B5816084BD85B5826085BD85B551
:100B7000816085BD80916E00816080936E001092CF
:100B8000810080918100826080938100809181004A
:100B900081608093810080918000816080938000DB
:100BA0008091B10084608093B1008091B000816039
:100BB0008093B00080917A00846080937A00809165
:100BC0007A00826080937A0080917A0081608093BD
:100BD0007A0080917A00806880937A001092C10038
:100BE0001092900110928F011092DF011092DE019D
:100BF0000E9464028EE291E090938E0180938D01B9
:100C00008FE291E090938C0180938B01109291017F
:100C100088EA91E6A0E0B0E08093BA019093BB012E
:100C2000A093BC01B093BD011092B90161E083E0D3
:100C30000E94D80060E082E00E94D80060E083E07B
:100C40000E948C0061E088E00E94D8002FB7F894E1
:100C50008091240290912502A0912602B091270252
:100C60002FBF80931F0290932002A0932102B09384
:100C70002202E0913C02F0913D0282E08083E0910B
:100C80003802F09139021082E0913A02F0913B0271
:100C900080E1808310924402E0914002F091410291
:100CA00086E08083E0913E02F0913F028081806186
:100CB0008083E0913E02F0913F02808188608083D2
:100CC000E0913E02F0913F02808180688083E09154
:100CD0003E02F0913F0280818F7D80836AE0462E44
:100CE000512C612C712C5EE1252E52E0352E2FB750
:100CF000F8948091240290912502A0912602B0914F
:100D000027022FBF40911F025091200260912102C3
:100D100070912202841B950BA60BB70B4597A1057A
:100D2000B10508F486C12FB7F89480912402909100
:100D30002502A0912602B09127022FBF80931F02A7
:100D400090932002A0932102B093220281E085B902
:100D500080911E026FE00E94A908E92EF12C61E04B
:100D600083E00E948C0083E290E00197F1F760E05D
:100D700083E00E948C00ECE9F0E06491E8E8F0E0A8
:100D80008491E82FF0E0EE0FFF1FE859FF4F8591A7
:100D900094910CEA16E120E030E0462F0E942505F0
:100DA000611571058105910529F06F5F7F4F8F4FA8
:100DB0009F4F9F70F701EE0FFF1FEE0FFF1FEE51C9
:100DC000FE4F6083718382839383E2EEF1E060E003
:100DD00070E0CB010191119121913191600F711F50
:100DE000821F931F2E163F06A9F720911E022F5F28
:100DF00020931E022FE030E040E050E00E9478088F
:100E0000AFEFBFE00E946D082BEA36E140E050E012
:100E10000E944E082F3AFFE03F0710F02EEA3FE015
:100E20002936310510F429E630E050E040E029563B
:100E3000310941095109ACE3BFE00E946D0825E486
:100E40003FE040E050E00E944E0849015A0184E62C
:100E5000880E911CA11CB11CA501940119A27E0150
:100E600091E2E90EF11CCA01B901A30192010E94AD
:100E70007808605DF70162937F0121153105410516
:100E8000510589F7309761F001900020E9F731971B
:100E9000AF014E195F09B7018CE292E00E94300168
:100EA00042E050E064E271E08CE292E00E943001A6
:100EB00080E48983C40124E0969587952A95E1F71B
:100EC0008A83282D2295207F2B83F1E0F093E10186
:100ED00080E68093E0011092DF011092DE0143E092
:100EE00050E0BE016F5F7F4F89EC92E00E94CD021F
:100EF0001091DE01113208F095C00091E0010E94CE
:100F000009016B017C018091B801811166C082E00A
:100F10008093B80181E08093B7018FEF8093B60191
:100F20001092B5011093B401AEEBB1E0E4E9F1E049
:100F300080E018138BC01092930180919301F02EE2
:100F4000FF0CF82AF092930180919201813009F010
:100F500081C0109292010E9409016B017C01809175
:100F600093018093BB008091BA019091BB01A09145
:100F7000BC01B091BD01892B8A2B8B2B99F00E946B
:100F800009010091BA011091BB012091BC0130917F
:100F9000BD016C197D098E099F09061717072807DF
:100FA0003907E0F18091BC0083FDD9CF85EC8093B7
:100FB000BC000E9409016B017C018091B801823064
:100FC00009F44AC08091B6018F3F61F18091B6016A
:100FD000803241F18091B60125C08091BA01909193
:100FE000BB01A091BC01B091BD01892B8A2B8B2B39
:100FF00009F489CF0E9409012091BA013091BB0107
:101000004091BC015091BD016C197D098E099F0969
:10101000261737074807590708F075CF8091B9019F
:101020000E9482021092DF011092DE011092E10113
:1010300015B8E0E0F0E0EF2B09F459CE0E949A01D8
:10104000882309F450CE0E9400004DCE9D919193CB
:101050008F5F6FCF85EEABCF8091BA019091BB01CE
:10106000A091BC01B091BD01892B8A2B8B2B09F477
:10107000A4CF0E9409010091BA011091BB012091F7
:10108000BC013091BD016C197D098E099F090617BD
:1010900017072807390708F090CFC0CF052E97FB18
:1010A0001EF400940E94650857FD07D00E9478083E
:1010B00007FC03D04EF40C9465085095409530958C
:1010C00021953F4F4F4F5F4F0895909580957095B4
:1010D00061957F4F8F4F9F4F08950E949A08A59F5B
:1010E000900DB49F900DA49F800D911D1124089523
:1010F000A1E21A2EAA1BBB1BFD010DC0AA1FBB1F1C
:10110000EE1FFF1FA217B307E407F50720F0A21B8D
:10111000B30BE40BF50B661F771F881F991F1A94FA
:1011200069F760957095809590959B01AC01BD0124
:10113000CF010895A29FB001B39FC001A39F700D7E
:10114000811D1124911DB29F700D811D1124911DCF
:101150000895991B79E004C0991F961708F0961B13
:10116000881F7A95C9F780950895EE0FFF1F0590A7
:0A117000F491E02D0994F894FFCFEC
:10117A0000000000D00130015D011D028E016C01EA
:10118A00800100000000FA02CD022903A302C60270
:08119A00B302A4020D0A0000DB
:00000001FF
